:100000000C94B1000C94E6010C9464010C94CE00A5
:100010000C94CE000C94CE000C94CE000C94CE0028
:100020000C94CE000C94CE000C94CE000C94CE0018
:100030000C94CE000C94D8020C94CE000C94CE00FC
:100040000C94CE000C94CE000C9468020C94CE005C
:100050000C94CE000C94CE000C94CE000C94CE00E8
:100060000C94CE000C94CE0000407A10F35A00A0FD
:10007000724E18090010A5D4E80000E87648170071
:1000800000E40B54020000CA9A3B000000E1F505B1
:10009000000080969800000040420F000000A086FB
:1000A00001000000102700000000E803000000002D
:1000B0006400000000000A000000000001000000D1
:1000C00000002C76D888DC674F0823DFC1DFAE59EB
:1000D000E1B1B796E5E3E453C63AE651997696E87E
:1000E000E6C28426EB898C9B62ED407C6FFCEFBC02
:1000F0009C9F40F2BAA56FA5F490055A2AF75C932D
:100100006B6CF9676DC11BFCE0E40D47FEF520E662
:10011000B500D0ED902E0300943577050080841E45
:10012000080000204E0A000000C80C333333330FA0
:10013000986E12831141EF8D2114893BE65516CF3D
:10014000FEE6DB18D1844B381BF77C1D901DA4BB49
:10015000E424203284725E228100C9F124ECA1E5FE
:100160003D2711241FBECFEFD8E0DEBFCDBF11E089
:10017000A0E0B1E0ECEDF9E102C005900D92AA35E6
:10018000B107D9F721E0AAE5B1E001C01D92A3377C
:10019000B207E1F70E9454030C94EC0C0C9400009D
:1001A00080FF0BC05C9A81FF0AC05D9A82FF09C084
:1001B0005E9A83FF08C05F9A08955C98F4CF5D98BB
:1001C000F5CF5E98F6CF5F9808959091C00095FFA7
:1001D000FCCF8093C6000895CF93DF9300D000D06A
:1001E000CDB7DEB7FE01319690E080E0F999FECF01
:1001F00092BD81BDF89A20B5219301968430910576
:10020000A9F769817A818B819C810F900F900F9063
:100210000F90DF91CF91089580917A008064809350
:100220007A0080917A0086FDFCCF809178009091D1
:1002300079000895CF93C82F299A82958F700E94D4
:10024000D0002998299A8C2F0E94D000299887ECF9
:1002500090E00197F1F700C00000CF910895289A2F
:100260000C941A01CF93DF93EC018991882319F044
:100270000E942F01FACFDF91CF91089528980C9416
:100280001A010F931F93CF93DF93EC018C01FE01B2
:1002900001900020E9F7CF018C1B9D0B98012C1BCE
:1002A0003D0B2817390730F4F80181918F010E9426
:1002B000E500EDCF8DE00E94E5008AE0DF91CF916F
:1002C0001F910F910C94E5001F920F920FB60F92A1
:1002D0001124AF92BF92CF92DF92EF92FF920F93D1
:1002E0001F932F933F934F935F936F937F938F93BE
:1002F0009F9320916101309162014091630150917F
:10030000640160916501709166018091670190912F
:100310006801A0906901B0906A01C0906B01D09013
:100320006C01E0906D01F0906E0100916F011091F1
:1003300070010E94360A71F17091690160916A0141
:1003400050916B0140916C0130916D0120916E01D3
:1003500090916F01809170017093610160936201CF
:1003600050936301409364013093650120936601CB
:1003700090936701809368014B990CC08DB38DBB3E
:1003800080917101909172010297C9F410927201EB
:10039000109271019F918F917F916F915F914F9119
:1003A0003F912F911F910F91FF90EF90DF90CF9091
:1003B000BF90AF900F900FBE0F901F90189582E0E6
:1003C00090E09093720180937101E4CF1F920F929D
:1003D0000FB60F921124AF92BF92CF92DF92EF929D
:1003E000FF920F931F932F933F934F935F936F93BE
:1003F0007F938F939F93209161013091620140918F
:100400006301509164016091650170916601809172
:10041000670190916801A0906901B0906A01C09055
:100420006B01D0906C01E0906D01F0906E01009135
:100430006F01109170010E94360A71F1709169018B
:1004400060916A0150916B0140916C0130916D0196
:1004500020916E0190916F01809170017093610104
:10046000609362015093630140936401309365018E
:100470002093660190936701809368014A990CC0AC
:100480008DB38DBB80917101909172010197C9F478
:1004900010927201109271019F918F917F916F91D3
:1004A0005F914F913F912F911F910F91FF90EF908E
:1004B000DF90CF90BF90AF900F900FBE0F901F9026
:1004C000189581E090E09093720180937101E4CFE0
:1004D0001F920F920FB60F9211240F931F932F9319
:1004E0003F934F935F936F937F938F939F93AF93BC
:1004F000BF93EF93FF93CF93DF93CDB7DEB72D97E5
:10050000DEBFCDBF8091C6008B878032C1F18033C2
:1005100009F448C0803109F048C0FE013B96CE0185
:100520000E962091C00027FFFCCF2091C60021939A
:10053000E817F907B1F78B85809360018C8580936C
:100540005F018D8580935E012D960FB6F894DEBF16
:100550000FBECDBFDF91CF91FF91EF91BF91AF91D2
:100560009F918F917F916F915F914F913F912F91CB
:100570001F910F910F900FBE0F901F9018956091D3
:100580005A0170915B0180915C0190915D018E0137
:100590000F5F1F4F22E042E00E946C05C8010E94DD
:1005A0004101D2CF0E94EC00F2CF85E491E0F7CF79
:1005B0001F920F920FB60F9211242F933F934F93D8
:1005C0005F936F937F938F939F93AF932091690174
:1005D00030916A0140916B0150916C0160916D0105
:1005E00070916E0180916F0190917001A1E00E9465
:1005F0002A0A2093690130936A0140936B0150935A
:100600006C0160936D0170936E0180936F01909304
:1006100070012091690180916A0180916B01809144
:100620006C0180916D0180916E0180916F018091CC
:100630007001237030E040E050E060E070E080E066
:1006400090E0A0E00E943F0A09F580915E018F5F73
:1006500080935E0180915E018C3338F080915F0160
:100660008F5F80935F0110925E0180915F018C33F8
:1006700038F0809160018F5F8093600110925F017C
:1006800080916001883110F010926001AF919F91CC
:100690008F917F916F915F914F913F912F910F902B
:1006A0000FBE0F901F901895CF93DF93CDB7DEB795
:1006B000AC970FB6F894DEBF0FBECDBF84B18C638C
:1006C00084B953988BB18F608BB939983898109250
:1006D0007201109271011092690110926A011092D8
:1006E0006B0110926C0110926D0110926E011092CC
:1006F0006F011092700110926101109262011092CC
:1007000063011092640110926501109266011092CB
:100710006701109268011092600110925F011092BF
:100720005E018091B000836C8093B0008091B10035
:1007300082608093B100809180008061809380000E
:100740008091810083608093810080E98093C10063
:1007500081E080936F00E89A8091690082608093C5
:100760006900E99A809169008860809369007894B3
:10077000549A559A569A579A219A209A8FE59AEE4A
:100780000197F1F700C000002898299813E0299AF2
:1007900083E00E94D0002998EFE1FEE43197F1F761
:1007A00000C00000115099F7299A82E00E94D00001
:1007B00029988FE99FE00197F1F700C0000088E2D7
:1007C0000E943E0188E00E943E0181E00E943E01BD
:1007D000EFE3FFE13197F1F700C0000086E00E94EF
:1007E0003E018CE00E943E011092C50087E6809396
:1007F000C40088E18093C10086E08093C20088E055
:10080000E0E0F1E0DE01119601900D928A95E1F7AA
:1008100080E40E943E01CE0101967C016E0199E0C8
:10082000C90ED11CF70181917F010E942F01CE14C6
:10083000DF04C1F780E80E943E0185B18C6385B971
:100840008091C10080688093C100F12CE12C90E47C
:10085000392E21EC222E6E01F5E1CF0ED11CEA9447
:10086000EF2809F476C087E880937A0020927C0014
:100870009FEFE1EEF4E09150E040F040E1F700C07E
:1008800000000E940C01BC01990F880B990B0E947B
:100890000D0920E030E040E85AE30E94BD092DEC4C
:1008A0003CEC4CE85FE30E94BD0920E030E048ECFE
:1008B00052E40E94BD0960935A0170935B018093DA
:1008C0005C0190935D01EE24E394F12C0E94EC0016
:1008D00020915A0130915B0140915C0150915D0182
:1008E0000E94650887FF73C01092B3008091B10029
:1008F0008D7F8093B1002B9A80917101909172014C
:100900008130910509F4BFC008F48BC0029709F04B
:10091000A6CFE89AE99A81E00E943E018FE39FE129
:100920000197F1F700C0000060915A0170915B01DE
:1009300080915C0190915D018E010F5F1F4F21E05E
:1009400042E00E946C0580E80E943E0187E391E04E
:10095000B3C08091710190917201019761F527E810
:1009600020937A0030927C000E940C01BC0190E040
:1009700080E00E940B0920E030E040E252E40E9457
:10098000BD0920E030E040E85AE30E94BD0969A7B4
:100990007AA78BA79CA7FE01B99690E080E02191F1
:1009A000F999FECF92BD81BD20BDFA9AF99A0196C0
:1009B00084309105A1F78FEF91EEE4E081509040F3
:1009C000E040E1F700C00000F12CE12C7FCF8091E6
:1009D000B10082608093B10080905A0190905B01D9
:1009E000A0905C01B0905D010E94EC002B013C01E5
:1009F00020E030E04FE753E4C501B4010E94BD0997
:100A0000A30192010E946A089B01AC0160E070E0C2
:100A10008FE793E40E94F8070E94DC086093B3001C
:100A20006BCFE89AE99A81E00E943E018FE39FE153
:100A30000197F1F700C0000020915E0190915F01E5
:100A4000809160011F922F931F929F931F928F930B
:100A5000E8E0F1E0FF93EF93DF92CF920E944B0A20
:100A600080E80E943E0187E191E00E94320180EC23
:100A70000E943E01C6010E9432010FB6F894DEBF0B
:100A80000FBECDBFECCEE89AE99A81E00E943E010C
:100A9000EFE3FFE13197F1F700C000000E94EC00A6
:100AA0008E010F5F1F4F22E042E00E946C0580E83C
:100AB0000E943E0185E291E00E94320180EC0E949A
:100AC0003E01C8010E94320180E00E942F0185E3AF
:100AD00091E00E943201C3CEEF920F931F93CF9308
:100AE000DF93E80134E047FD34E1042E000C550BA0
:100AF00057FF03C0519541955109E32E022F242F32
:100B0000AE010E948A05CE01DF91CF911F910F9116
:100B1000EF900895A9E0B0E0E0E9F5E00C94C70794
:100B20006A01F22EB02E102FFBE3AF2EA01608F4B0
:100B30001BE31F5F012F27E0AE014F5F5F4F0E9455
:100B4000E906BC018981982F9970913009F43FC062
:100B50009BE2E1FC04C09E2D9170E0FC3AC05E2D4A
:100B60005071E82FE87083FF46C084E0911101C006
:100B700083E0EF2DE81B8F1508F0E0E0D6018E2F03
:100B800020E2552351F1992329F0D6019C93C60107
:100B900001966C0196012D5F3F4FE2FE24C08EE46A
:100BA000D6018C9391E411969C93119712968C9395
:100BB000D9018E2F90E281111BC0E20FF32FF11D9E
:100BC00010828EEF9FEF2996ECE00C94E3079DE2F4
:100BD000C6CF90E2C4CF2D9381508111FCCFCE0EB1
:100BE000D11CE0E0D0CF8EE6D6018C9391E6DBCF2E
:100BF0009D938150E0CF482F447082FF3DC084E038
:100C0000911101C083E08F1510F4EF2DE81BD60180
:100C10008E2F20E2552309F1992329F0D6019C93C8
:100C2000C60101966C0196012D5F3F4FE2FE1BC08D
:100C300089E4D6018C938EE411968C93119786E407
:100C400012968C93D9018E2F90E2882309F4B5CFA8
:100C50009D938150FACF2D9381508111FCCFCE0E00
:100C6000D11CE0E0D9CF89E6D6018C938EE61196AF
:100C70008C93119786E6E4CF9B0177FF02C030E0AA
:100C800020E0A1E0B0E0911102C0B0E0A0E0F901E5
:100C90003196AE0FBF1F8B2C912CBB2009F461C085
:100CA0005401EFEFAE1ABE0AAA0DBB1DFA161B06C1
:100CB00019F014F04F2D4A1B511188C0E3FC59C0A4
:100CC0007601A42FB0E2A1114FC0C40ED11C99230C
:100CD00009F45BC040E0D6011196F60190836D01E6
:100CE000552309F448C0012F060F9A81582F5071DF
:100CF00084FF03C0913309F4015010160CF047C073
:100D0000093008F008E0EEE2FE2E5B01A01AB108FF
:100D100085019194819491082F3F320729F4D601DF
:100D2000FC92F60131966F016217730794F1021776
:100D300013077CF5DB01A21BB30BAA24A394B12CEF
:100D4000AC0EBD1EAA0DBB1D11968C912150310910
:100D5000D601119628153905F4F0F60180836D014E
:100D6000DBCFB12CA12CA0CFF701B1937F01A15013
:100D7000AACF9111B0CFD601942F50E302C05D935A
:100D800091509111FCCFC40ED11C40E0ACCF01E0DA
:100D9000BACF80E3DBCF6217730731F4963388F460
:100DA000953311F4552369F0F6018083FD01842FFA
:100DB00090E2811108C0A40FB11D1C9290E080E068
:100DC00002CF81E3F1CF91938150F3CF911183CF83
:100DD0008ACF283008F027E03327DA01990F311D38
:100DE00087FD916000966105710539F432602E5FD0
:100DF0003D9330E32A95E1F708959F3F30F0803826
:100E00007105610509F03C5F3C5F3D93913008F04E
:100E10008068911DDF93CF931F930F93FF92EF9202
:100E2000192F987F9695E92F96959695E90FFF27AC
:100E3000EE53FF4F99273327EE24FF24A701E70144
:100E400005900894079428F4360FE71EF81E491FF2
:100E5000511D660F771F881F991F0694A1F70590F3
:100E6000079428F4E70EF81E491F561FC11D770F7F
:100E7000881F991F661F0694A1F70590079428F410
:100E8000F80E491F561FC71FD11D880F991F661FD7
:100E9000771F0694A1F70590079420F4490F561F79
:100EA000C71FD81F990F661F771F881F0694A9F7C1
:100EB00084911095177041F0D695C7955795479531
:100EC000F794E7941A95C1F7E8E6F0E06894159076
:100ED000159135916591959105907FE27395E11893
:100EE000F10A430B560BC90BD009C0F7E10CF11EF8
:100EF000431F561FC91FD01D7EF4703311F48A950D
:100F0000E6CFE894015030F0080F0AF400270217EA
:100F100008F4202F2395022F7A3328F079E37D936C
:100F20002A95E9F710C07D932A9589F6069497953E
:100F30006795379517951794E118F10A430B560BEF
:100F4000C90BD00998F023957E9173957A3308F0F8
:100F500070E37C932013B8F77E9170617D9330F03D
:100F6000839571E37D9370E32A95E1F71124EF9067
:100F7000FF900F911F91CF91DF91992787FD909559
:100F800008952F923F924F925F926F927F928F922D
:100F90009F92AF92BF92CF92DF92EF92FF920F9308
:100FA0001F93CF93DF93CDB7DEB7CA1BDB0B0FB612
:100FB000F894DEBF0FBECDBF09942A8839884888CF
:100FC0005F846E847D848C849B84AA84B984C88465
:100FD000DF80EE80FD800C811B81AA81B981CE0F5C
:100FE000D11D0FB6F894DEBF0FBECDBFED01089541
:100FF0005058BB27AA270E9410080C9483090E940E
:10100000750938F00E947C0920F039F49F3F19F4EB
:1010100026F40C9472090EF4E095E7FB0C946C092D
:10102000E92F0E94940958F3BA17620773078407DF
:10103000950720F079F4A6F50C94B6090EF4E09526
:101040000B2EBA2FA02D0B01B90190010C01CA0182
:10105000A0011124FF27591B99F0593F50F4503E2D
:1010600068F11A16F040A22F232F342F4427585F1F
:10107000F3CF469537952795A795F0405395C9F737
:101080007EF41F16BA0B620B730B840BBAF09150EF
:10109000A1F0FF0FBB1F661F771F881FC2F70EC08E
:1010A000BA0F621F731F841F48F487957795679561
:1010B000B795F7959E3F08F0B0CF9395880F08F04D
:1010C0009927EE0F9795879508950E94480908F48F
:1010D00081E008950E947E080C9483090E947C0997
:1010E00058F00E94750940F029F45F3F29F00C94F4
:1010F0006C0951110C94B7090C9472090E9494095F
:1011000068F39923B1F3552391F3951B550BBB2736
:10111000AA2762177307840738F09F5F5F4F220F7B
:10112000331F441FAA1FA9F335D00E2E3AF0E0E872
:1011300032D091505040E695001CCAF72BD0FE2FBC
:1011400029D0660F771F881FBB1F26173707480750
:10115000AB07B0E809F0BB0B802DBF01FF27935808
:101160005F4F3AF09E3F510578F00C946C090C9457
:10117000B7095F3FE4F3983ED4F38695779567957A
:10118000B795F7959F5FC9F7880F911D969587953D
:1011900097F90895E1E0660F771F881FBB1F62175C
:1011A00073078407BA0720F0621B730B840BBA0B1A
:1011B000EE1F88F7E09508950E949C0988F09F57DC
:1011C00098F0B92F9927B751B0F0E1F0660F771F6B
:1011D000881F991F1AF0BA95C9F714C0B13091F061
:1011E0000E94B609B1E008950C94B609672F782FD4
:1011F0008827B85F39F0B93FCCF386957795679526
:10120000B395D9F73EF490958095709561957F4F91
:101210008F4F9F4F0895E89409C097FB3EF4909537
:101220008095709561957F4F8F4F9F4F9923A9F0BF
:10123000F92F96E9BB279395F6958795779567954E
:10124000B795F111F8CFFAF4BB0F11F460FF1BC092
:101250006F5F7F4F8F4F9F4F16C0882311F096E925
:1012600011C0772321F09EE8872F762F05C06623D3
:1012700071F096E8862F70E060E02AF09A95660F8C
:10128000771F881FDAF7880F9695879597F9089545
:10129000990F0008550FAA0BE0E8FEEF1616170687
:1012A000E807F907C0F012161306E407F50798F0EF
:1012B000621B730B840B950B39F40A2661F0232B08
:1012C000242B252B21F408950A2609F4A140A69584
:1012D0008FEF811D811D089597F99F6780E870E069
:1012E00060E008959FEF80EC089500240A9416169C
:1012F000170618060906089500240A941216130604
:10130000140605060895092E0394000C11F4882391
:1013100052F0BB0F40F4BF2B11F460FF04C06F5FAD
:101320007F4F8F4F9F4F089557FD9058440F551F83
:1013300059F05F3F71F04795880F97FB991F61F057
:101340009F3F79F087950895121613061406551FCE
:10135000F2CF4695F1DF08C0161617061806991F3A
:10136000F1CF86957105610508940895E894BB272F
:1013700066277727CB0197F908950E94D0090C942E
:1013800083090E94750938F00E947C0920F095239A
:1013900011F00C946C090C94720911240C94B70987
:1013A0000E94940970F3959FC1F3950F50E0551F6B
:1013B000629FF001729FBB27F00DB11D639FAA27AA
:1013C000F00DB11DAA1F649F6627B00DA11D661FF9
:1013D000829F2227B00DA11D621F739FB00DA11D1A
:1013E000621F839FA00D611D221F749F3327A00DD4
:1013F000611D231F849F600D211D822F762F6A2F70
:1014000011249F5750409AF0F1F088234AF0EE0FD4
:10141000FF1FBB1F661F771F881F91505040A9F701
:101420009E3F510580F00C946C090C94B7095F3F06
:10143000E4F3983ED4F3869577956795B795F7953D
:10144000E7959F5FC1F7FE2B880F911D96958795B5
:1014500097F908950024A7FD00942A0F301D401D20
:10146000501D601D701D801D901D08952A153B059F
:101470004C055D056E057F058007910708950024E2
:10148000A7FD00942A17300540055005600570053A
:10149000800590050895AEE0B0E0E1E5FAE00C9437
:1014A000CF070D891E8986E08C831A8309838FEF0D
:1014B0009FE79E838D83AE01475E5F4F6F89788D76
:1014C000CE0101960E946E0A2F813885020F131FEC
:1014D000F80110822E96E4E00C94EB07ABE0B0E04C
:1014E000E4E7FAE00C94C1077C013B018A01FC01AE
:1014F00017821682838181FFC8C1CE0101965C01EB
:10150000F7019381F30193FD859193FF81913F0151
:10151000882309F453C1853239F493FD859193FFF3
:1015200081913F01853229F4B70190E00E945E0C61
:10153000E7CF912C212C312CFFE1F31538F08B32C1
:1015400011F190F4803209F1833229F137FC3CC06B
:1015500020ED280F2A3050F536FE20C08AE0989EF4
:10156000200D1124922E06C08D3291F0803371F738
:10157000689430F8F30193FD859193FF81913F01C9
:101580008111DACF21C0689431F8689432F8F2CF33
:10159000689433F8EFCF689434F8ECCFEAE02E9EED
:1015A000200D1124222E689435F8E4CF8E3229F4D0
:1015B00036FC04C1689436F8DDCF8C3619F4689493
:1015C00037F8D8CF8836B1F2982F9F7D9554933055
:1015D000E0F08336A1F18337C1F1833509F063C0B0
:1015E0002801F2E04F0E511CF801C080D180692D16
:1015F00070E036FC02C06FEF7FEFC6010E94480C1E
:101600004C01689437F882010AC00C5F1F4FFFE35A
:10161000F98388248394912C6501E89437F833FE8C
:101620002DC0522C8114910471F5552009F468CF16
:10163000B70180E290E00E945E0C5A94F6CFF80168
:10164000808189830E5F1F4FE4CF2801F2E04F0EA7
:10165000511CF801C080D180692D70E036FC02C0B9
:101660006FEF7FEFC6010E94530C4C018201D5CF72
:10167000B70180E290E00E945E0C2A9428141904BD
:1016800009F0B0F7CECFF60137FC859137FE819196
:101690006F01B70190E00E945E0C51105A94F1E086
:1016A0008F1A9108BFCF843619F0893609F077C0B8
:1016B000F80137FE6BC060817181828193810C5F7C
:1016C0001F4FF32DFF763F2E97FF09C09095809511
:1016D000709561957F4F8F4F9F4F689437F82AE040
:1016E00030E0A5010E948E0CC82ECA188C2C432C09
:1016F00036FE0CC0E89440F8C91440F434FE05C02E
:1017000032FC03C0F32DFE7E4F2E892C44FE95C083
:10171000FE01EC0DF11D8081803309F087C0242D7E
:10172000297E422E842D8870582E43FC95C040FEA1
:101730008FC09C2C821418F42C0C922C981844FE08
:1017400091C0B70180E390E00E945E0C42FE09C0A8
:1017500088E790E041FE02C088E590E0B7010E9472
:101760005E0CC91408F48AC0CA94D12C9FEFC91A20
:10177000D90ACA0CDB1CF60182916F01B70190E017
:101780000E945E0CAC14BD04B1F74FCF6081718133
:10179000072E000C880B990B0E5F1F4F92CFD32C96
:1017A000E894D4F82AE030E0853739F1232D297FF9
:1017B000D22E8F3601F148F48835A9F0F7018681E1
:1017C00097812B96E2E10C94DD07803749F088374A
:1017D000A9F7D4FE02C06894D2F820E130E00DC031
:1017E0006894D4F8F6CF34FE03C0822F8660D82EDA
:1017F00020E132E002C028E030E0F801D7FE0FC05F
:1018000060817181828193810C5F1F4FA5010E94CD
:101810008E0CC82ECA183D2CE89437F867CF60812B
:10182000718190E080E00E5F1F4FF0CF42FC02C05C
:10183000839478CF8394839475CF842D867809F42C
:1018400071CFF6CFB70180E290E00E945E0C8394E6
:101850008214C0F3512C73CF522C5818821408F400
:101860006ECFF8CF842D867809F47BCF8BE241FED2
:1018700080E247FC8DE2B70190E071CFB70180E3D1
:1018800090E00E945E0C9A946CCF8FEF9FEF99CFFF
:10189000FC010590615070400110D8F7809590953B
:1018A0008E0F9F1F0895FC01615070400190011040
:1018B000D8F7809590958E0F9F1F08950F931F93D3
:1018C000CF93DF93182F092FEB018B8181FD09C086
:1018D0001FEF0FEF812F902FDF91CF911F910F916D
:1018E000089582FF14C02E813F818C819D8128172D
:1018F00039073CF4E881F981CF0101969983888307
:1019000010838E819F8101969F838E83E3CFE8852C
:10191000F985812F0995892BA1F3DACFFA01AA273E
:10192000283051F1203181F1E8946F936E7F6E5F22
:101930007F4F8F4F9F4FAF4FB1E03ED0B4E03CD0D0
:10194000670F781F891F9A1FA11D680F791F8A1FB3
:10195000911DA11D6A0F711D811D911DA11D20D01A
:1019600009F468943F912AE0269F11243019305DD4
:101970003193DEF6CF010895462F4770405D4193C5
:10198000B3E00FD0C9F7F6CF462F4F70405D4A3312
:1019900018F0495D31FD4052419302D0A9F7EACFDA
:1019A000B4E0A6959795879577956795BA95C9F709
:1019B00000976105710508959B01AC010A2E0694FC
:1019C0005795479537952795BA95C9F7620F731FB5
:0C19D000841F951FA01D0895F894FFCF00
:1019DC000705070000000000253032643A2530323C
:1019EC00643A253032640043757272656E7420540B
:1019FC00696D653A00536574205468726573686F3D
:101A0C006C64203A00430054656D706572617475A6
:101A1C0072653A2000496E76616C696420636F6D63
:0A1A2C006D616E6420636F64650055
:00000001FF
